:100000000C943A000C944C000C944C000C944C0052
:100010000C944C000C944C000C944C000C944C0030
:100020000C944C000C944C000C944C000C944C0020
:100030000C944C000C944C000C9460000C944C00FC
:100040000C944C000C944C000C944E000C944C00FE
:100050000C944C000C944C000C944C000C944C00F0
:100060000C944C000C944C000C944C000C944C00E0
:100070000C944C0011241FBECFEFD2E0DEBFCDBFE9
:1000800021E0A0E0B1E001C01D92A730B207E1F786
:100090000E9498000C941C010C9400001F920F9277
:1000A0000FB60F92112410920601109205011092C2
:1000B0000401109203010F900FBE0F901F9018952E
:1000C0001F920F920FB60F9211248F939F93EF936D
:1000D000FF93379B0EC0E1E8F0E080818F7B808347
:1000E000809186009091870090930601809305018E
:1000F0000DC0E1E8F0E0808180648083809186001B
:1001000090918700909304018093030110928500E1
:10011000109284001092870010928600B59AFF9189
:10012000EF919F918F910F900FBE0F901F90189598
:10013000269A2E98279A83EC84BD85B5836085BD69
:1001400016BC8FEF87BD3F98479A1092800082E8D7
:100150008093810010928500109284001092870095
:10016000109286007894EFE6F0E0808181628083CF
:10017000B59A2FEF31E0A895809103019091040189
:10018000803D974028F410920101109200012DC08B
:100190008091030190910401813A9F4028F03093AF
:1001A00001012093000121C0809105019091060179
:1001B000803A9C4838F08091050190910601813485
:1001C0009C4928F010920101109200010EC080910C
:1001D000030190910401805D9740969587959695CF
:1001E0008795909301018093000180910001909187
:1001F00001018115924020F030930101209300010C
:1002000080910001909101018F3F910549F040F0EC
:100210008091000190910101809302012E9807C006
:100220008091000190910101809302012E9A8091AA
:0C0230000201809587BD9FCFF894FFCF9E
:00000001FF
