:100000000C943A000C944C000C944C000C944C0052
:100010000C944C000C944C000C944C000C944C0030
:100020000C944C000C944C000C944C000C944C0020
:100030000C944C000C944C000C9460000C944C00FC
:100040000C944C000C944C000C944E000C944C00FE
:100050000C944C000C944C000C944C000C944C00F0
:100060000C944C000C944C000C944C000C944C00E0
:100070000C944C0011241FBECFEFD2E0DEBFCDBFE9
:1000800021E0A0E0B1E001C01D92A630B207E1F787
:100090000E9498000C94EE000C9400001F920F92A6
:1000A0000FB60F92112410920501109204011092C4
:1000B0000301109202010F900FBE0F901F90189530
:1000C0001F920F920FB60F9211248F939F93EF936D
:1000D000FF93379B0EC0E1E8F0E080818F7B808347
:1000E0008091860090918700909305018093040190
:1000F0000DC0E1E8F0E0808180648083809186001B
:1001000090918700909303018093020110928500E3
:10011000109284001092870010928600B59AFF9189
:10012000EF919F918F910F900FBE0F901F90189598
:10013000279A83EC84BD85B5836085BD16BC8FE7A7
:1001400087BD17B81092800082E8809381001092DA
:100150008500109284001092870010928600789497
:10016000EFE6F0E0808181628083B59A2FEF30E086
:10017000A8958091020190910301805D974096952A
:10018000879596958795969587959093010180938D
:10019000000180910001909101018F3F910529F0AC
:1001A00020F030930101209300018091040190918F
:1001B0000501803A9C4838F0809104019091050136
:1001C00081349C4920F0109201011092000180912D
:1001D000000190910101809587BDCACFF894FFCFAF
:00000001FF
